{
  "contractName": "Inbox",
  "abi": [
    {
      "inputs": [
        {
          "internalType": "string",
          "name": "initialMessage",
          "type": "string"
        }
      ],
      "stateMutability": "nonpayable",
      "type": "constructor"
    },
    {
      "inputs": [],
      "name": "message",
      "outputs": [
        {
          "internalType": "string",
          "name": "",
          "type": "string"
        }
      ],
      "stateMutability": "view",
      "type": "function",
      "constant": true
    },
    {
      "inputs": [],
      "name": "getMessage",
      "outputs": [
        {
          "internalType": "string",
          "name": "",
          "type": "string"
        }
      ],
      "stateMutability": "view",
      "type": "function",
      "constant": true
    },
    {
      "inputs": [
        {
          "internalType": "string",
          "name": "newMessage",
          "type": "string"
        }
      ],
      "name": "setMessage",
      "outputs": [],
      "stateMutability": "nonpayable",
      "type": "function"
    },
    {
      "inputs": [],
      "name": "getOwner",
      "outputs": [
        {
          "internalType": "address",
          "name": "",
          "type": "address"
        }
      ],
      "stateMutability": "view",
      "type": "function",
      "constant": true
    }
  ],
  "bytecode": "0x60806040523480156200001157600080fd5b5060405162000c6938038062000c698339818101604052810190620000379190620002e5565b33600160006101000a81548173ffffffffffffffffffffffffffffffffffffffff021916908373ffffffffffffffffffffffffffffffffffffffff16021790555080600090805190602001906200009092919062000098565b50506200039b565b828054620000a69062000365565b90600052602060002090601f016020900481019282620000ca576000855562000116565b82601f10620000e557805160ff191683800117855562000116565b8280016001018555821562000116579182015b8281111562000115578251825591602001919060010190620000f8565b5b50905062000125919062000129565b5090565b5b80821115620001445760008160009055506001016200012a565b5090565b6000604051905090565b600080fd5b600080fd5b600080fd5b600080fd5b6000601f19601f8301169050919050565b7f4e487b7100000000000000000000000000000000000000000000000000000000600052604160045260246000fd5b620001b18262000166565b810181811067ffffffffffffffff82111715620001d357620001d262000177565b5b80604052505050565b6000620001e862000148565b9050620001f68282620001a6565b919050565b600067ffffffffffffffff82111562000219576200021862000177565b5b620002248262000166565b9050602081019050919050565b60005b838110156200025157808201518184015260208101905062000234565b8381111562000261576000848401525b50505050565b60006200027e6200027884620001fb565b620001dc565b9050828152602081018484840111156200029d576200029c62000161565b5b620002aa84828562000231565b509392505050565b600082601f830112620002ca57620002c96200015c565b5b8151620002dc84826020860162000267565b91505092915050565b600060208284031215620002fe57620002fd62000152565b5b600082015167ffffffffffffffff8111156200031f576200031e62000157565b5b6200032d84828501620002b2565b91505092915050565b7f4e487b7100000000000000000000000000000000000000000000000000000000600052602260045260246000fd5b600060028204905060018216806200037e57607f821691505b6020821081141562000395576200039462000336565b5b50919050565b6108be80620003ab6000396000f3fe608060405234801561001057600080fd5b506004361061004c5760003560e01c8063368b877214610051578063893d20e81461006d578063ce6d41de1461008b578063e21f37ce146100a9575b600080fd5b61006b6004803603810190610066919061066c565b6100c7565b005b610075610203565b60405161008291906106f6565b60405180910390f35b6100936102bd565b6040516100a09190610799565b60405180910390f35b6100b16103e1565b6040516100be9190610799565b60405180910390f35b33600160009054906101000a900473ffffffffffffffffffffffffffffffffffffffff1673ffffffffffffffffffffffffffffffffffffffff163373ffffffffffffffffffffffffffffffffffffffff1614610158576040517f08c379a000000000000000000000000000000000000000000000000000000000815260040161014f90610807565b60405180910390fd5b600160009054906101000a900473ffffffffffffffffffffffffffffffffffffffff1673ffffffffffffffffffffffffffffffffffffffff163373ffffffffffffffffffffffffffffffffffffffff16146101e8576040517f08c379a00000000000000000000000000000000000000000000000000000000081526004016101df90610807565b60405180910390fd5b81600090805190602001906101fe92919061046f565b505050565b6000600160009054906101000a900473ffffffffffffffffffffffffffffffffffffffff1673ffffffffffffffffffffffffffffffffffffffff163373ffffffffffffffffffffffffffffffffffffffff1614610295576040517f08c379a000000000000000000000000000000000000000000000000000000000815260040161028c90610807565b60405180910390fd5b600160009054906101000a900473ffffffffffffffffffffffffffffffffffffffff16905090565b606033600160009054906101000a900473ffffffffffffffffffffffffffffffffffffffff1673ffffffffffffffffffffffffffffffffffffffff163373ffffffffffffffffffffffffffffffffffffffff1614610350576040517f08c379a000000000000000000000000000000000000000000000000000000000815260040161034790610807565b60405180910390fd5b6000805461035d90610856565b80601f016020809104026020016040519081016040528092919081815260200182805461038990610856565b80156103d65780601f106103ab576101008083540402835291602001916103d6565b820191906000526020600020905b8154815290600101906020018083116103b957829003601f168201915b505050505091505090565b600080546103ee90610856565b80601f016020809104026020016040519081016040528092919081815260200182805461041a90610856565b80156104675780601f1061043c57610100808354040283529160200191610467565b820191906000526020600020905b81548152906001019060200180831161044a57829003601f168201915b505050505081565b82805461047b90610856565b90600052602060002090601f01602090048101928261049d57600085556104e4565b82601f106104b657805160ff19168380011785556104e4565b828001600101855582156104e4579182015b828111156104e35782518255916020019190600101906104c8565b5b5090506104f191906104f5565b5090565b5b8082111561050e5760008160009055506001016104f6565b5090565b6000604051905090565b600080fd5b600080fd5b600080fd5b600080fd5b6000601f19601f8301169050919050565b7f4e487b7100000000000000000000000000000000000000000000000000000000600052604160045260246000fd5b61057982610530565b810181811067ffffffffffffffff8211171561059857610597610541565b5b80604052505050565b60006105ab610512565b90506105b78282610570565b919050565b600067ffffffffffffffff8211156105d7576105d6610541565b5b6105e082610530565b9050602081019050919050565b82818337600083830152505050565b600061060f61060a846105bc565b6105a1565b90508281526020810184848401111561062b5761062a61052b565b5b6106368482856105ed565b509392505050565b600082601f83011261065357610652610526565b5b81356106638482602086016105fc565b91505092915050565b6000602082840312156106825761068161051c565b5b600082013567ffffffffffffffff8111156106a05761069f610521565b5b6106ac8482850161063e565b91505092915050565b600073ffffffffffffffffffffffffffffffffffffffff82169050919050565b60006106e0826106b5565b9050919050565b6106f0816106d5565b82525050565b600060208201905061070b60008301846106e7565b92915050565b600081519050919050565b600082825260208201905092915050565b60005b8381101561074b578082015181840152602081019050610730565b8381111561075a576000848401525b50505050565b600061076b82610711565b610775818561071c565b935061078581856020860161072d565b61078e81610530565b840191505092915050565b600060208201905081810360008301526107b38184610760565b905092915050565b7f48617320746f20626520746865206f776e657200000000000000000000000000600082015250565b60006107f160138361071c565b91506107fc826107bb565b602082019050919050565b60006020820190508181036000830152610820816107e4565b9050919050565b7f4e487b7100000000000000000000000000000000000000000000000000000000600052602260045260246000fd5b6000600282049050600182168061086e57607f821691505b6020821081141561088257610881610827565b5b5091905056fea26469706673582212201218242c08089eafcef65c164c7f0885a6c6702ab60c570065a94cca4468ccd564736f6c634300080b0033",
  "immutableReferences": {},
  "source": "// SPDX-License-Identifier: GPL-3.0\r\npragma solidity ^0.8.0;\r\n\r\ncontract Inbox{\r\n\r\n    string public message;\r\n    address private ownerAddress;\r\n\r\n    constructor(string memory initialMessage){\r\n       ownerAddress = msg.sender;\r\n        message = initialMessage;\r\n\r\n    }\r\n\r\n    function getMessage() public ownerRestricted(msg.sender) view returns(string memory){\r\n        return message;\r\n    }\r\n\r\n    function setMessage(string memory newMessage) public ownerRestricted(msg.sender){\r\n        //require( bytes(newMessage).length>20, \"Invalid Length\");\r\n        require(msg.sender == ownerAddress,\"Has to be the owner\");\r\n        message = newMessage;\r\n    }\r\n\r\n    function getOwner() public view returns(address){\r\n        require(msg.sender == ownerAddress,\"Has to be the owner\");\r\n        return ownerAddress;\r\n    }\r\n\r\n    modifier ownerRestricted(address client){\r\n        require(msg.sender == ownerAddress,\"Has to be the owner\");\r\n        _;\r\n    }\r\n}",
  "sourcePath": "C:\\Users\\ACER\\Desktop\\0bcoin\\0bcoin\\ethereum\\contracts\\Inbox.sol",
  "compiler": {
    "name": "solc",
    "version": "0.8.11+commit.d7f03943.Emscripten.clang"
  },
  "schemaVersion": "3.4.4",
  "updatedAt": "2022-06-05T16:28:20.260Z",
  "networkType": "ethereum",
  "devdoc": {
    "kind": "dev",
    "methods": {},
    "version": 1
  },
  "userdoc": {
    "kind": "user",
    "methods": {},
    "version": 1
  }
}