{
  "contractName": "Lottery",
  "abi": [
    {
      "inputs": [],
      "stateMutability": "nonpayable",
      "type": "constructor"
    },
    {
      "inputs": [],
      "name": "manager",
      "outputs": [
        {
          "internalType": "address",
          "name": "",
          "type": "address"
        }
      ],
      "stateMutability": "view",
      "type": "function",
      "constant": true
    },
    {
      "inputs": [
        {
          "internalType": "uint256",
          "name": "",
          "type": "uint256"
        }
      ],
      "name": "players",
      "outputs": [
        {
          "internalType": "address",
          "name": "",
          "type": "address"
        }
      ],
      "stateMutability": "view",
      "type": "function",
      "constant": true
    },
    {
      "inputs": [],
      "name": "enter",
      "outputs": [],
      "stateMutability": "payable",
      "type": "function",
      "payable": true
    },
    {
      "inputs": [],
      "name": "random",
      "outputs": [
        {
          "internalType": "uint256",
          "name": "",
          "type": "uint256"
        }
      ],
      "stateMutability": "view",
      "type": "function",
      "constant": true
    },
    {
      "inputs": [],
      "name": "pickWinner",
      "outputs": [],
      "stateMutability": "nonpayable",
      "type": "function"
    },
    {
      "inputs": [],
      "name": "getPlayers",
      "outputs": [
        {
          "internalType": "address[]",
          "name": "",
          "type": "address[]"
        }
      ],
      "stateMutability": "view",
      "type": "function",
      "constant": true
    }
  ],
  "bytecode": "0x608060405234801561001057600080fd5b5033600160006101000a81548173ffffffffffffffffffffffffffffffffffffffff021916908373ffffffffffffffffffffffffffffffffffffffff1602179055506109f2806100616000396000f3fe6080604052600436106100555760003560e01c8063481c6a751461005a5780635d495aea146100855780635ec01e4d1461009c5780638b5b9ccc146100c7578063e97dcb62146100f2578063f71d96cb146100fc575b600080fd5b34801561006657600080fd5b5061006f610139565b60405161007c9190610556565b60405180910390f35b34801561009157600080fd5b5061009a61015f565b005b3480156100a857600080fd5b506100b16102f2565b6040516100be919061058a565b60405180910390f35b3480156100d357600080fd5b506100dc610328565b6040516100e99190610663565b60405180910390f35b6100fa6103b6565b005b34801561010857600080fd5b50610123600480360381019061011e91906106b6565b61042f565b6040516101309190610556565b60405180910390f35b600160009054906101000a900473ffffffffffffffffffffffffffffffffffffffff1681565b600160009054906101000a900473ffffffffffffffffffffffffffffffffffffffff1673ffffffffffffffffffffffffffffffffffffffff163373ffffffffffffffffffffffffffffffffffffffff16146101ef576040517f08c379a00000000000000000000000000000000000000000000000000000000081526004016101e690610766565b60405180910390fd5b600080805490506101fe6102f2565b61020891906107b5565b90506000818154811061021e5761021d6107e6565b5b9060005260206000200160009054906101000a900473ffffffffffffffffffffffffffffffffffffffff1673ffffffffffffffffffffffffffffffffffffffff166108fc479081150290604051600060405180830381858888f1935050505015801561028e573d6000803e3d6000fd5b50600067ffffffffffffffff8111156102aa576102a9610815565b5b6040519080825280602002602001820160405280156102d85781602001602082028036833780820191505090505b50600090805190602001906102ee92919061046e565b5050565b60004442600060405160200161030a93929190610983565b6040516020818303038152906040528051906020012060001c905090565b606060008054806020026020016040519081016040528092919081815260200182805480156103ac57602002820191906000526020600020905b8160009054906101000a900473ffffffffffffffffffffffffffffffffffffffff1673ffffffffffffffffffffffffffffffffffffffff1681526020019060010190808311610362575b5050505050905090565b671bc16d674ec8000034116103ca57600080fd5b6000339080600181540180825580915050600190039060005260206000200160009091909190916101000a81548173ffffffffffffffffffffffffffffffffffffffff021916908373ffffffffffffffffffffffffffffffffffffffff160217905550565b6000818154811061043f57600080fd5b906000526020600020016000915054906101000a900473ffffffffffffffffffffffffffffffffffffffff1681565b8280548282559060005260206000209081019282156104e7579160200282015b828111156104e65782518260006101000a81548173ffffffffffffffffffffffffffffffffffffffff021916908373ffffffffffffffffffffffffffffffffffffffff1602179055509160200191906001019061048e565b5b5090506104f491906104f8565b5090565b5b808211156105115760008160009055506001016104f9565b5090565b600073ffffffffffffffffffffffffffffffffffffffff82169050919050565b600061054082610515565b9050919050565b61055081610535565b82525050565b600060208201905061056b6000830184610547565b92915050565b6000819050919050565b61058481610571565b82525050565b600060208201905061059f600083018461057b565b92915050565b600081519050919050565b600082825260208201905092915050565b6000819050602082019050919050565b6105da81610535565b82525050565b60006105ec83836105d1565b60208301905092915050565b6000602082019050919050565b6000610610826105a5565b61061a81856105b0565b9350610625836105c1565b8060005b8381101561065657815161063d88826105e0565b9750610648836105f8565b925050600181019050610629565b5085935050505092915050565b6000602082019050818103600083015261067d8184610605565b905092915050565b600080fd5b61069381610571565b811461069e57600080fd5b50565b6000813590506106b08161068a565b92915050565b6000602082840312156106cc576106cb610685565b5b60006106da848285016106a1565b91505092915050565b600082825260208201905092915050565b7f596f7520617265206e6f74206175746872697a656420746f207069636b20612060008201527f77696e6e65720000000000000000000000000000000000000000000000000000602082015250565b60006107506026836106e3565b915061075b826106f4565b604082019050919050565b6000602082019050818103600083015261077f81610743565b9050919050565b7f4e487b7100000000000000000000000000000000000000000000000000000000600052601260045260246000fd5b60006107c082610571565b91506107cb83610571565b9250826107db576107da610786565b5b828206905092915050565b7f4e487b7100000000000000000000000000000000000000000000000000000000600052603260045260246000fd5b7f4e487b7100000000000000000000000000000000000000000000000000000000600052604160045260246000fd5b6000819050919050565b61085f61085a82610571565b610844565b82525050565b600081549050919050565b600081905092915050565b60008190508160005260206000209050919050565b61089981610535565b82525050565b60006108ab8383610890565b60208301905092915050565b60008160001c9050919050565b600073ffffffffffffffffffffffffffffffffffffffff82169050919050565b60006108f76108f2836108b7565b6108c4565b9050919050565b600061090a82546108e4565b9050919050565b6000600182019050919050565b600061092982610865565b6109338185610870565b935061093e8361087b565b8060005b8381101561097657610953826108fe565b61095d888261089f565b975061096883610911565b925050600181019050610942565b5085935050505092915050565b600061098f828661084e565b60208201915061099f828561084e565b6020820191506109af828461091e565b915081905094935050505056fea26469706673582212205a1e78223079c6de6cdea844933c76fbec652ff29818fe088c35e088a909436064736f6c634300080b0033",
  "immutableReferences": {},
  "source": "// SPDX-License-Identifier: GPL-3.0\r\npragma solidity ^0.8.0;\r\n\r\ncontract Lottery{\r\n    address[] public players;\r\n    address public manager;\r\n\r\n    constructor(){\r\n        manager = msg.sender;\r\n    }\r\n\r\n    function enter() public payable{\r\n        require(msg.value > 2 ether);\r\n        players.push(msg.sender);\r\n    }\r\n\r\n    function random() public view returns(uint){\r\n        return uint(keccak256(abi.encodePacked(block.difficulty, block.timestamp, players)));\r\n    }\r\n\r\n    function pickWinner() public restrited{\r\n       \r\n        //return random() % players.length;\r\n\r\n        uint index = random() % players.length;\r\n        payable(players[index]).transfer(address(this).balance);\r\n        players = new address[](0);\r\n    }\r\n\r\n    modifier restrited(){\r\n        require(msg.sender == manager, \"You are not authrized to pick a winner\");\r\n        _;\r\n    }\r\n\r\n    function getPlayers() public view returns(address[] memory){\r\n        return players;\r\n    }\r\n}",
  "sourcePath": "C:\\Users\\ACER\\Desktop\\blockChain\\src\\ethereum\\contracts\\Lottery.sol",
  "compiler": {
    "name": "solc",
    "version": "0.8.11+commit.d7f03943.Emscripten.clang"
  },
  "schemaVersion": "3.4.4",
  "updatedAt": "2022-06-10T17:06:40.501Z",
  "networkType": "ethereum",
  "devdoc": {
    "kind": "dev",
    "methods": {},
    "version": 1
  },
  "userdoc": {
    "kind": "user",
    "methods": {},
    "version": 1
  }
}