{
  "contractName": "Lottery",
  "abi": [
    {
      "inputs": [],
      "stateMutability": "nonpayable",
      "type": "constructor"
    },
    {
      "inputs": [],
      "name": "manager",
      "outputs": [
        {
          "internalType": "address",
          "name": "",
          "type": "address"
        }
      ],
      "stateMutability": "view",
      "type": "function",
      "constant": true
    },
    {
      "inputs": [
        {
          "internalType": "uint256",
          "name": "",
          "type": "uint256"
        }
      ],
      "name": "players",
      "outputs": [
        {
          "internalType": "address",
          "name": "",
          "type": "address"
        }
      ],
      "stateMutability": "view",
      "type": "function",
      "constant": true
    },
    {
      "inputs": [],
      "name": "enter",
      "outputs": [],
      "stateMutability": "payable",
      "type": "function",
      "payable": true
    },
    {
      "inputs": [],
      "name": "random",
      "outputs": [
        {
          "internalType": "uint256",
          "name": "",
          "type": "uint256"
        }
      ],
      "stateMutability": "view",
      "type": "function",
      "constant": true
    },
    {
      "inputs": [],
      "name": "pickWinner",
      "outputs": [],
      "stateMutability": "nonpayable",
      "type": "function"
    }
  ],
  "bytecode": "0x608060405234801561001057600080fd5b5033600160006101000a81548173ffffffffffffffffffffffffffffffffffffffff021916908373ffffffffffffffffffffffffffffffffffffffff16021790555061071b806100616000396000f3fe60806040526004361061004a5760003560e01c8063481c6a751461004f5780635d495aea1461007a5780635ec01e4d14610091578063e97dcb62146100bc578063f71d96cb146100c6575b600080fd5b34801561005b57600080fd5b50610064610103565b6040516100719190610402565b60405180910390f35b34801561008657600080fd5b5061008f610129565b005b34801561009d57600080fd5b506100a661022c565b6040516100b39190610436565b60405180910390f35b6100c4610262565b005b3480156100d257600080fd5b506100ed60048036038101906100e89190610482565b6102db565b6040516100fa9190610402565b60405180910390f35b600160009054906101000a900473ffffffffffffffffffffffffffffffffffffffff1681565b6000808054905061013861022c565b61014291906104de565b9050600081815481106101585761015761050f565b5b9060005260206000200160009054906101000a900473ffffffffffffffffffffffffffffffffffffffff1673ffffffffffffffffffffffffffffffffffffffff166108fc479081150290604051600060405180830381858888f193505050501580156101c8573d6000803e3d6000fd5b50600067ffffffffffffffff8111156101e4576101e361053e565b5b6040519080825280602002602001820160405280156102125781602001602082028036833780820191505090505b506000908051906020019061022892919061031a565b5050565b600044426000604051602001610244939291906106ac565b6040516020818303038152906040528051906020012060001c905090565b671bc16d674ec80000341161027657600080fd5b6000339080600181540180825580915050600190039060005260206000200160009091909190916101000a81548173ffffffffffffffffffffffffffffffffffffffff021916908373ffffffffffffffffffffffffffffffffffffffff160217905550565b600081815481106102eb57600080fd5b906000526020600020016000915054906101000a900473ffffffffffffffffffffffffffffffffffffffff1681565b828054828255906000526020600020908101928215610393579160200282015b828111156103925782518260006101000a81548173ffffffffffffffffffffffffffffffffffffffff021916908373ffffffffffffffffffffffffffffffffffffffff1602179055509160200191906001019061033a565b5b5090506103a091906103a4565b5090565b5b808211156103bd5760008160009055506001016103a5565b5090565b600073ffffffffffffffffffffffffffffffffffffffff82169050919050565b60006103ec826103c1565b9050919050565b6103fc816103e1565b82525050565b600060208201905061041760008301846103f3565b92915050565b6000819050919050565b6104308161041d565b82525050565b600060208201905061044b6000830184610427565b92915050565b600080fd5b61045f8161041d565b811461046a57600080fd5b50565b60008135905061047c81610456565b92915050565b60006020828403121561049857610497610451565b5b60006104a68482850161046d565b91505092915050565b7f4e487b7100000000000000000000000000000000000000000000000000000000600052601260045260246000fd5b60006104e98261041d565b91506104f48361041d565b925082610504576105036104af565b5b828206905092915050565b7f4e487b7100000000000000000000000000000000000000000000000000000000600052603260045260246000fd5b7f4e487b7100000000000000000000000000000000000000000000000000000000600052604160045260246000fd5b6000819050919050565b6105886105838261041d565b61056d565b82525050565b600081549050919050565b600081905092915050565b60008190508160005260206000209050919050565b6105c2816103e1565b82525050565b60006105d483836105b9565b60208301905092915050565b60008160001c9050919050565b600073ffffffffffffffffffffffffffffffffffffffff82169050919050565b600061062061061b836105e0565b6105ed565b9050919050565b6000610633825461060d565b9050919050565b6000600182019050919050565b60006106528261058e565b61065c8185610599565b9350610667836105a4565b8060005b8381101561069f5761067c82610627565b61068688826105c8565b97506106918361063a565b92505060018101905061066b565b5085935050505092915050565b60006106b88286610577565b6020820191506106c88285610577565b6020820191506106d88284610647565b915081905094935050505056fea26469706673582212201fa3af12038a920f64eb69f62be6bd89cd3f87b1e16b0fc62da0580519c3d20964736f6c634300080e0033",
  "immutableReferences": {},
  "source": "// SPDX-License-Identifier: GLP-3.0\r\n\r\npragma solidity ^0.8.0;\r\n\r\ncontract Lottery{\r\n\r\n    address[] public players;\r\n    address public manager;\r\n\r\n    constructor(){\r\n        manager = msg.sender;\r\n    }\r\n\r\n    function enter() public payable{\r\n        require(msg.value > 2 ether);\r\n        players.push(msg.sender);\r\n    }\r\n\r\n    function random() public view returns(uint){\r\n        return uint(keccak256(abi.encodePacked(block.difficulty,block.timestamp, players)));\r\n    }\r\n\r\n    function pickWinner() public {\r\n        uint index = random() % players.length;\r\n        payable(players[index]).transfer(address(this).balance);\r\n        players = new address[](0);\r\n    }\r\n}\r\n",
  "sourcePath": "C:\\Users\\HP\\Desktop\\Lottery testing\\contracts\\Lottery.sol",
  "compiler": {
    "name": "solc",
    "version": "0.8.14+commit.80d49f37.Emscripten.clang"
  },
  "schemaVersion": "3.4.7",
  "updatedAt": "2022-06-15T01:53:49.460Z",
  "networkType": "ethereum",
  "devdoc": {
    "kind": "dev",
    "methods": {},
    "version": 1
  },
  "userdoc": {
    "kind": "user",
    "methods": {},
    "version": 1
  }
}